:1000000002004630040990E680E0440AF080079040
:10001000E680E04408F07FDC7E0512052C90E65D6A
:1000200074FFF090E65FF05391EF90E680E054F7B4
:10003000F022220208AC7F141208A5D283C281C22A
:10004000802232020600787FE4F6D8FD75812E0208
:1000500003073202060090E6B9E01205C001050070
:10006000018201020603007C0600FF0800F9090076
:10007000ED0A00F30B0272A1000002F31208B24075
:10008000030202FF90E6BBE024FE602714603824E0
:10009000FD601114602724067050E52390E6B3F04C
:1000A000E524803C120881503EE52B90E6B3F0E554
:1000B0002C802DE52590E6B3F0E5268023E52790FA
:1000C000E6B3F0E528801990E6BAE0FF1207D0AA5F
:1000D00006A9077B01EA494B600DEE90E6B3F0EF0D
:1000E00090E6B4F00202FF02026C02026C12086495
:1000F0000202FF12089D0202FF1208950202FF127F
:1001000006EE0202FF1208B440030202FF90E6B8B6
:10011000E0247F601514601924027063A200E433A8
:1001200025E0FFA202E4334F8041E490E740F080F5
:100130003F90E6BCE0547EFF7E00E0D394807C00DC
:1001400040047D0180027D00EC4EFEED4F24DEF583
:100150008274083EF583E493FF3395E0FEEF24A11B
:10016000FFEE34E68F82F583E0540190E740F0E43F
:10017000A3F090E68AF090E68B7402F00202FF0290
:10018000026C1208B640030202FF90E6B8E024FEBB
:100190006016240260030202FF90E6BAE0B4010593
:1001A000C2000202FF02026C90E6BAE0705690E6CE
:1001B000BCE0547EFF7E00E0D394807C0040047D50
:1001C0000180027D00EC4EFEED4F24DEF5827408C6
:1001D0003EF583E493FF3395E0FEEF24A1FFEE3478
:1001E000E68F82F583E054FEF090E6BCE054801385
:1001F0001313541FFFE0540F2F90E683F0E04420C8
:10020000F00202FF80661208B840030202FF90E687
:10021000B8E024FE601C2402705290E6BAE0B401FB
:1002200005D2000202FF90E6BAE0B402030202FF28
:10023000803A90E6BCE0547EFF7E00E0D394807C60
:100240000040047D0180027D00EC4EFEED4F24DE77
:10025000F58274083EF583E493FF3395E0FEEF24C6
:10026000A1FFEE34E68F82F5830202FB90E6A00246
:1002700002FB90E6BEE0FF1313543FF519E090E651
:100280008BF090E6BFE090E68AF0E4F518E518C33D
:100290009519506B120876E51825E025E02443F502
:1002A00082E434E7F583E0FF120778E51825E025BE
:1002B000E02442F582E434E7F583E0FF120778E5B5
:1002C0001825E025E02441F582E434E7F583E0FFDA
:1002D000120778E51825E025E02440F582E434E7AC
:1002E000F583E0FF1207781200367F3C1208A5055F
:1002F00018809A1208BA500790E6A0E04401F090E6
:10030000E6A0E04480F022E4F513F512F511F510B3
:10031000C203C200C202C20112047112088B7E071E
:100320007F008E238F24752B07752C12752107757E
:10033000221C752907752A35752D07752E4EEE542A
:10034000C0700302040B7514007515808E168F178C
:10035000C374769FFF74079ECF2402CF3400FEE45F
:100360008F0F8E0EF50DF50CF50BF50AF509F50856
:10037000AF0FAE0EAD0DAC0CAB0BAA0AA909A808C5
:10038000C31205AF5033E517250BF582E516350A84
:10039000F583E0FFE515250BF582E514350AF583B5
:1003A000EFF0E50B2401F50BE4350AF50AE4350915
:1003B000F509E43508F50880B785142385152474FC
:1003C000002480FF740734FFFEC3E52C9FF52CE565
:1003D0002B9EF52BC3E5269FF526E5259EF525C327
:1003E000E5289FF528E5279EF527C3E5229FF522FE
:1003F000E5219EF521C3E52A9FF52AE5299EF529E9
:10040000C3E52E9FF52EE52D9EF52DD2E843D8208D
:1004100090E668E04409F090E65CE0443DF0D2AF3D
:1004200090E680E020E105D20412000390E680E02F
:1004300054F7F0538EF8C203120032300105120057
:1004400056C2013003F21205FE50EDC2031207FB43
:1004500020001690E682E030E704E020E1EF90E62D
:1004600082E030E604E020E0E41207A41208B08045
:10047000C790E600E054E74410F000000090E60169
:100480007413F000000090E60B7403F0000000907D
:10049000E61274D8F000000090E6407483F000008B
:1004A0000090E613E0547FF000000090E614E05462
:1004B0007FF000000090E615E0547FF0000000900F
:1004C000E6047480F00000007482F0000000748480
:1004D000F00000007486F00000007488F000000056
:1004E000E4F000000090E618740CF0E490E602F0EE
:1004F00000000090E603F090E670F000000090E647
:10050000097404F000000090E620F0000000E49080
:10051000E621F000000090E6307480F0000000E476
:1005200090E631F090E605E054FDF0228E188F1928
:1005300090E600E054187012E5192401FFE4351824
:10054000C313F518EF13F519801590E600E0541861
:10055000FFBF100BE51925E0F519E51833F518E58F
:10056000191519AE18700215184E600512080F8083
:10057000EE22C0E0C083C08290E680E030E72085B4
:100580002125852226852682852583A37402F08570
:100590002927852A28852882852783A37407F05375
:1005A00091EF90E65D7420F0D082D083D0E032EB02
:1005B0009FF5F0EA9E42F0E99D42F0E89C45F0226A
:1005C000D083D082F8E4937012740193700DA3A3CA
:1005D00093F8740193F5828883E4737402936860DE
:1005E000EFA3A3A380DFC0E0C083C082D2015391F8
:1005F000EF90E65D7401F0D082D083D0E032D32258
:100600000205E60002084E00020838000208200039
:100610000206B80002057200020042000200520009
:100620000208BC000208BD000208BE000208BF00AC
:100630000208C0000208C1000208C2000208C3008C
:100640000208C400020052000208C5000208C600E9
:100650000208C7000208C8000208C9000208CA0050
:100660000208CB00020052000200520002005200B9
:100670000208CC000208CD000208CE000208CF001C
:100680000208D0000208D1000208D2000208D300FC
:100690000208D4000208D5000208D6000208D700DC
:1006A0000208D8000208D9000208DA000208DB00BC
:1006B0000208DC000208DD00C0E0C083C08285299A
:1006C00025852A26852682852583A37402F0852127
:1006D00027852228852882852783A37407F05391D4
:1006E000EF90E65D7410F0D082D083D0E03290E7D6
:1006F00040E51DF0E490E68AF090E68B04F0D3220A
:100700001201000200000040B404041000000102C5
:1007100000010A0600020000004001000902190061
:1007200001010080320904000001FF0000000705FC
:10073000820100140109021900010100803209043C
:10074000000001FF000000070582024000000403D2
:10075000090416034D0053005500490045004900A7
:1007600020004900540036000E034700500053009B
:1007700020005200780000008F1AE4F51BE51AC330
:1007800030E701D392807F141208A5D2817F141222
:1007900008A5C281E51A25E0F51A051BE51BC394DF
:1007A0000840DA2290E682E030E004E020E60B9098
:1007B000E682E030E119E030E71590E680E04401A0
:1007C000F07F147E0012052C90E680E054FEF022AB
:1007D000A907AE2DAF2E8F828E83A3E0640370171E
:1007E000AD0119ED7001228F828E83E07C002FFD18
:1007F000EC3EFEAF0580DFE4FEFF2290E682E0449F
:10080000C0F090E681F043870100000000002274F0
:1008100000F58690FDA57C05A3E582458370F9224D
:10082000C0E0C083C082D2035391EF90E65D7408AC
:10083000F0D082D083D0E032C0E0C083C082539138
:10084000EF90E65D7404F0D082D083D0E032C0E057
:10085000C083C0825391EF90E65D7402F0D082D0E5
:1008600083D0E03290E740E51CF0E490E68AF09017
:10087000E68B04F0D322C281C280C2837F140208B7
:10088000A590E509E0D330E401C32243B20BD28343
:10089000C281C2802290E6BAE0F51DD32290E6BA6A
:1008A000E0F51CD322AE071FEE70FA2253D8EF32C8
:1008B000D322D322D322D322D322D32232323232B2
:1008C0003232323232323232323232323232323208
:1008D000323232323232323232323232323200015B
:0808E0000202030304040505F4
:00000001FF
